{
  "contractName": "MedicalReceipt",
  "abi": [
    {
      "constant": true,
      "inputs": [
        {
          "name": "",
          "type": "address"
        },
        {
          "name": "",
          "type": "uint256"
        }
      ],
      "name": "data",
      "outputs": [
        {
          "name": "prescription",
          "type": "string"
        },
        {
          "name": "hospital_name",
          "type": "string"
        },
        {
          "name": "doctor_name",
          "type": "string"
        }
      ],
      "payable": false,
      "stateMutability": "view",
      "type": "function",
      "signature": "0xe283b4dd"
    },
    {
      "inputs": [],
      "payable": false,
      "stateMutability": "nonpayable",
      "type": "constructor",
      "signature": "constructor"
    },
    {
      "constant": true,
      "inputs": [
        {
          "name": "_own",
          "type": "address"
        }
      ],
      "name": "getPatientLatestMedicalReceipt",
      "outputs": [
        {
          "name": "",
          "type": "string"
        },
        {
          "name": "",
          "type": "string"
        },
        {
          "name": "",
          "type": "string"
        }
      ],
      "payable": false,
      "stateMutability": "view",
      "type": "function",
      "signature": "0x81bc7f53"
    },
    {
      "constant": false,
      "inputs": [
        {
          "name": "_hospital_name",
          "type": "string"
        },
        {
          "name": "_doctor_name",
          "type": "string"
        },
        {
          "name": "_prescription",
          "type": "string"
        }
      ],
      "name": "setPatientMedicalReceipt",
      "outputs": [],
      "payable": false,
      "stateMutability": "nonpayable",
      "type": "function",
      "signature": "0xf9de4281"
    }
  ],
  "bytecode": "0x60806040523480156200001157600080fd5b50336000800160006101000a81548173ffffffffffffffffffffffffffffffffffffffff021916908373ffffffffffffffffffffffffffffffffffffffff1602179055506200005f62000212565b6060604051908101604052806040805190810160405280600781526020017f4e6f20446174610000000000000000000000000000000000000000000000000081525081526020016040805190810160405280600f81526020017f4e6f74205965742056697369746564000000000000000000000000000000000081525081526020016040805190810160405280601181526020017f4e6f742059657420436f6e73756c7465640000000000000000000000000000008152508152509050600160008060000160009054906101000a900473ffffffffffffffffffffffffffffffffffffffff1673ffffffffffffffffffffffffffffffffffffffff1673ffffffffffffffffffffffffffffffffffffffff16815260200190815260200160002081908060018154018082558091505090600182039060005260206000209060030201600090919290919091506000820151816000019080519060200190620001c992919062000234565b506020820151816001019080519060200190620001e892919062000234565b5060408201518160020190805190602001906200020792919062000234565b5050505050620002e3565b6060604051908101604052806060815260200160608152602001606081525090565b828054600181600116156101000203166002900490600052602060002090601f016020900481019282601f106200027757805160ff1916838001178555620002a8565b82800160010185558215620002a8579182015b82811115620002a75782518255916020019190600101906200028a565b5b509050620002b79190620002bb565b5090565b620002e091905b80821115620002dc576000816000905550600101620002c2565b5090565b90565b610dd880620002f36000396000f3fe608060405260043610610057576000357c0100000000000000000000000000000000000000000000000000000000900463ffffffff16806381bc7f531461005c578063e283b4dd146101fe578063f9de4281146103aa575b600080fd5b34801561006857600080fd5b506100ab6004803603602081101561007f57600080fd5b81019080803573ffffffffffffffffffffffffffffffffffffffff1690602001909291905050506105a0565b60405180806020018060200180602001848103845287818151815260200191508051906020019080838360005b838110156100f35780820151818401526020810190506100d8565b50505050905090810190601f1680156101205780820380516001836020036101000a031916815260200191505b50848103835286818151815260200191508051906020019080838360005b8381101561015957808201518184015260208101905061013e565b50505050905090810190601f1680156101865780820380516001836020036101000a031916815260200191505b50848103825285818151815260200191508051906020019080838360005b838110156101bf5780820151818401526020810190506101a4565b50505050905090810190601f1680156101ec5780820380516001836020036101000a031916815260200191505b50965050505050505060405180910390f35b34801561020a57600080fd5b506102576004803603604081101561022157600080fd5b81019080803573ffffffffffffffffffffffffffffffffffffffff16906020019092919080359060200190929190505050610969565b60405180806020018060200180602001848103845287818151815260200191508051906020019080838360005b8381101561029f578082015181840152602081019050610284565b50505050905090810190601f1680156102cc5780820380516001836020036101000a031916815260200191505b50848103835286818151815260200191508051906020019080838360005b838110156103055780820151818401526020810190506102ea565b50505050905090810190601f1680156103325780820380516001836020036101000a031916815260200191505b50848103825285818151815260200191508051906020019080838360005b8381101561036b578082015181840152602081019050610350565b50505050905090810190601f1680156103985780820380516001836020036101000a031916815260200191505b50965050505050505060405180910390f35b3480156103b657600080fd5b5061059e600480360360608110156103cd57600080fd5b81019080803590602001906401000000008111156103ea57600080fd5b8201836020820111156103fc57600080fd5b8035906020019184600183028401116401000000008311171561041e57600080fd5b91908080601f016020809104026020016040519081016040528093929190818152602001838380828437600081840152601f19601f8201169050808301925050505050505091929192908035906020019064010000000081111561048157600080fd5b82018360208201111561049357600080fd5b803590602001918460018302840111640100000000831117156104b557600080fd5b91908080601f016020809104026020016040519081016040528093929190818152602001838380828437600081840152601f19601f8201169050808301925050505050505091929192908035906020019064010000000081111561051857600080fd5b82018360208201111561052a57600080fd5b8035906020019184600183028401116401000000008311171561054c57600080fd5b91908080601f016020809104026020016040519081016040528093929190818152602001838380828437600081840152601f19601f820116905080830192505050505050509192919290505050610b77565b005b6060806060600160008573ffffffffffffffffffffffffffffffffffffffff1673ffffffffffffffffffffffffffffffffffffffff16815260200190815260200160002060018060008773ffffffffffffffffffffffffffffffffffffffff1673ffffffffffffffffffffffffffffffffffffffff168152602001908152602001600020805490500381548110151561063557fe5b9060005260206000209060030201600001600160008673ffffffffffffffffffffffffffffffffffffffff1673ffffffffffffffffffffffffffffffffffffffff16815260200190815260200160002060018060008873ffffffffffffffffffffffffffffffffffffffff1673ffffffffffffffffffffffffffffffffffffffff16815260200190815260200160002080549050038154811015156106d657fe5b9060005260206000209060030201600101600160008773ffffffffffffffffffffffffffffffffffffffff1673ffffffffffffffffffffffffffffffffffffffff16815260200190815260200160002060018060008973ffffffffffffffffffffffffffffffffffffffff1673ffffffffffffffffffffffffffffffffffffffff168152602001908152602001600020805490500381548110151561077757fe5b9060005260206000209060030201600201828054600181600116156101000203166002900480601f01602080910402602001604051908101604052809291908181526020018280546001816001161561010002031660029004801561081d5780601f106107f25761010080835404028352916020019161081d565b820191906000526020600020905b81548152906001019060200180831161080057829003601f168201915b50505050509250818054600181600116156101000203166002900480601f0160208091040260200160405190810160405280929190818152602001828054600181600116156101000203166002900480156108b95780601f1061088e576101008083540402835291602001916108b9565b820191906000526020600020905b81548152906001019060200180831161089c57829003601f168201915b50505050509150808054600181600116156101000203166002900480601f0160208091040260200160405190810160405280929190818152602001828054600181600116156101000203166002900480156109555780601f1061092a57610100808354040283529160200191610955565b820191906000526020600020905b81548152906001019060200180831161093857829003601f168201915b505050505090509250925092509193909250565b60016020528160005260406000208181548110151561098457fe5b906000526020600020906003020160009150915050806000018054600181600116156101000203166002900480601f016020809104026020016040519081016040528092919081815260200182805460018160011615610100020316600290048015610a315780601f10610a0657610100808354040283529160200191610a31565b820191906000526020600020905b815481529060010190602001808311610a1457829003601f168201915b505050505090806001018054600181600116156101000203166002900480601f016020809104026020016040519081016040528092919081815260200182805460018160011615610100020316600290048015610acf5780601f10610aa457610100808354040283529160200191610acf565b820191906000526020600020905b815481529060010190602001808311610ab257829003601f168201915b505050505090806002018054600181600116156101000203166002900480601f016020809104026020016040519081016040528092919081815260200182805460018160011615610100020316600290048015610b6d5780601f10610b4257610100808354040283529160200191610b6d565b820191906000526020600020905b815481529060010190602001808311610b5057829003601f168201915b5050505050905083565b6000800160009054906101000a900473ffffffffffffffffffffffffffffffffffffffff1673ffffffffffffffffffffffffffffffffffffffff163373ffffffffffffffffffffffffffffffffffffffff161415610ce057610bd7610ce5565b606060405190810160405280838152602001858152602001848152509050600160008060000160009054906101000a900473ffffffffffffffffffffffffffffffffffffffff1673ffffffffffffffffffffffffffffffffffffffff1673ffffffffffffffffffffffffffffffffffffffff16815260200190815260200160002081908060018154018082558091505090600182039060005260206000209060030201600090919290919091506000820151816000019080519060200190610ca0929190610d07565b506020820151816001019080519060200190610cbd929190610d07565b506040820151816002019080519060200190610cda929190610d07565b50505050505b505050565b6060604051908101604052806060815260200160608152602001606081525090565b828054600181600116156101000203166002900490600052602060002090601f016020900481019282601f10610d4857805160ff1916838001178555610d76565b82800160010185558215610d76579182015b82811115610d75578251825591602001919060010190610d5a565b5b509050610d839190610d87565b5090565b610da991905b80821115610da5576000816000905550600101610d8d565b5090565b9056fea165627a7a72305820fda801efe9d778d4db7ab9c07953398607b2227e0b406ae438f81dac7b4711460029",
  "source": "pragma solidity ^0.5.0;\n\ncontract MedicalReceipt{\n\n    struct Patient{\n        address owner;\n    }\n    \n    struct Receipt {\n        string prescription;\n        string hospital_name;\n        string doctor_name;\n    }\n    \n    Patient patient;\n    \n    mapping (address => Receipt[]) public data;\n\n    constructor() public{\n        patient.owner = msg.sender;\n        Receipt memory receipt = Receipt(\"No Data\",\"Not Yet Visited\",\"Not Yet Consulted\");\n        data[patient.owner].push(receipt);\n    }\n\n    modifier restricted() {\n        if(msg.sender == patient.owner)\n         _;\n    }\n    \n    function getPatientLatestMedicalReceipt(address _own) view public returns(string memory, string memory, string memory){\n        return (data[_own][data[_own].length - 1].prescription,\n            data[_own][data[_own].length - 1].hospital_name,\n            data[_own][data[_own].length - 1].doctor_name);\n    }\n    \n         \n    \n//   }\n      \n    function setPatientMedicalReceipt(string memory _hospital_name, string memory _doctor_name, string memory _prescription) \n        public restricted  {\n \n        Receipt memory receipt = Receipt(_prescription, _hospital_name, _doctor_name);\n        data[patient.owner].push(receipt);\n         \n    }\n       \n\n}",
  "sourcePath": "/home/sankarsani/Truffle_projects/Get_Fetch/contracts/MedicalReceipt.sol",
  "compiler": {
    "name": "solc",
    "version": "0.5.0+commit.1d4f565a.Emscripten.clang"
  },
  "schemaVersion": "3.0.1",
  "updatedAt": "2019-02-01T11:16:59.468Z",
  "devdoc": {
    "methods": {}
  },
  "userdoc": {
    "methods": {}
  }
}