{
  "contractName": "MySetGet",
  "abi": [
    {
      "inputs": [
        {
          "name": "_name",
          "type": "string"
        },
        {
          "name": "_id",
          "type": "uint256"
        }
      ],
      "payable": false,
      "stateMutability": "nonpayable",
      "type": "constructor"
    },
    {
      "constant": true,
      "inputs": [],
      "name": "getDetails",
      "outputs": [
        {
          "name": "",
          "type": "uint256"
        },
        {
          "name": "",
          "type": "string"
        },
        {
          "name": "",
          "type": "address"
        }
      ],
      "payable": false,
      "stateMutability": "view",
      "type": "function"
    },
    {
      "constant": false,
      "inputs": [
        {
          "name": "_name",
          "type": "string"
        }
      ],
      "name": "setName",
      "outputs": [],
      "payable": false,
      "stateMutability": "nonpayable",
      "type": "function"
    },
    {
      "constant": false,
      "inputs": [
        {
          "name": "_id",
          "type": "uint256"
        }
      ],
      "name": "setId",
      "outputs": [],
      "payable": false,
      "stateMutability": "nonpayable",
      "type": "function"
    }
  ],
  "bytecode": "0x608060405234801561001057600080fd5b506040516106673803806106678339810180604052604081101561003357600080fd5b81019080805164010000000081111561004b57600080fd5b8281019050602081018481111561006157600080fd5b815185600182028301116401000000008211171561007e57600080fd5b505092919060200180519060200190929190505050336000800160006101000a81548173ffffffffffffffffffffffffffffffffffffffff021916908373ffffffffffffffffffffffffffffffffffffffff16021790555081600060010190805190602001906100ef929190610101565b508060006002018190555050506101a6565b828054600181600116156101000203166002900490600052602060002090601f016020900481019282601f1061014257805160ff1916838001178555610170565b82800160010185558215610170579182015b8281111561016f578251825591602001919060010190610154565b5b50905061017d9190610181565b5090565b6101a391905b8082111561019f576000816000905550600101610187565b5090565b90565b6104b2806101b56000396000f3fe608060405260043610610057576000357c0100000000000000000000000000000000000000000000000000000000900463ffffffff168063c47f00271461005c578063d0e0ba9514610124578063fbbf93a01461015f575b600080fd5b34801561006857600080fd5b506101226004803603602081101561007f57600080fd5b810190808035906020019064010000000081111561009c57600080fd5b8201836020820111156100ae57600080fd5b803590602001918460018302840111640100000000831117156100d057600080fd5b91908080601f016020809104026020016040519081016040528093929190818152602001838380828437600081840152601f19601f820116905080830192505050505050509192919290505050610229565b005b34801561013057600080fd5b5061015d6004803603602081101561014757600080fd5b810190808035906020019092919050505061029f565b005b34801561016b57600080fd5b50610174610305565b60405180848152602001806020018373ffffffffffffffffffffffffffffffffffffffff1673ffffffffffffffffffffffffffffffffffffffff168152602001828103825284818151815260200191508051906020019080838360005b838110156101ec5780820151818401526020810190506101d1565b50505050905090810190601f1680156102195780820380516001836020036101000a031916815260200191505b5094505050505060405180910390f35b6000800160009054906101000a900473ffffffffffffffffffffffffffffffffffffffff1673ffffffffffffffffffffffffffffffffffffffff163373ffffffffffffffffffffffffffffffffffffffff16141561029c57806000600101908051906020019061029a9291906103e1565b505b50565b6000800160009054906101000a900473ffffffffffffffffffffffffffffffffffffffff1673ffffffffffffffffffffffffffffffffffffffff163373ffffffffffffffffffffffffffffffffffffffff16141561030257806000600201819055505b50565b600060606000806002015460006001016000800160009054906101000a900473ffffffffffffffffffffffffffffffffffffffff16818054600181600116156101000203166002900480601f0160208091040260200160405190810160405280929190818152602001828054600181600116156101000203166002900480156103cf5780601f106103a4576101008083540402835291602001916103cf565b820191906000526020600020905b8154815290600101906020018083116103b257829003601f168201915b50505050509150925092509250909192565b828054600181600116156101000203166002900490600052602060002090601f016020900481019282601f1061042257805160ff1916838001178555610450565b82800160010185558215610450579182015b8281111561044f578251825591602001919060010190610434565b5b50905061045d9190610461565b5090565b61048391905b8082111561047f576000816000905550600101610467565b5090565b9056fea165627a7a723058201752c8f3767d5340012d552a79283a8dfd387d1401354c8be863233350aba9300029",
  "source": "pragma solidity ^0.5.0;\n\ncontract MySetGet{\n\n    struct person{\n        address owner;\n        string name;\n        uint id;\n    }\n    person p;\n\n    constructor(string memory _name, uint _id) public{\n        p.owner = msg.sender;\n        p.name = _name;\n        p.id = _id;\n   \n    }\n\n    modifier restricted() {\n        if (msg.sender == p.owner)\n         _;\n    }\n    function getDetails() public view returns(uint,string memory,address){\n        return(p.id,p.name,p.owner);\n    }\n    function setName(string memory _name) public restricted {\n        // require(p.owner==msg.sender,\"Only Owner can Update his Name\");\n        p.name = _name;   \n    }\n    function setId(uint _id) public restricted{\n        // require(p.owner==msg.sender,\"Only Owner can Update his ids\");\n        p.id = _id;  \n    }\n\n}\n",
  "sourcePath": "/home/sankarsani/Truffle_projects/Get_Fetch/contracts/MySetGet.sol",
  "compiler": {
    "name": "solc",
    "version": "0.5.0+commit.1d4f565a.Emscripten.clang"
  },
  "schemaVersion": "3.0.1",
  "updatedAt": "2019-02-01T06:54:17.509Z",
  "devdoc": {
    "methods": {}
  },
  "userdoc": {
    "methods": {}
  }
}